{
  "transactions": [
    {
      "hash": "0x59350d2f6bbdb14ded1a7af3a6fd80a81ed20ec1837e58159cb99911bf2e4038",
      "transactionType": "CALL",
      "contractName": null,
      "contractAddress": "0x779877a7b0d9e8603169ddbd7836e478b4624789",
      "function": "transfer(address,uint256)",
      "arguments": [
        "0x9982dB04ac6b3d158694ea7c0aCDa0872daEc1ea",
        "62399250509637881"
      ],
      "transaction": {
        "from": "0x984a1db53b989fd3977bf07ef4cae068bde17bd4",
        "to": "0x779877a7b0d9e8603169ddbd7836e478b4624789",
        "gas": "0x116c8",
        "value": "0x0",
        "input": "0xa9059cbb0000000000000000000000009982db04ac6b3d158694ea7c0acda0872daec1ea00000000000000000000000000000000000000000000000000ddafc9a8e0a8f9",
        "nonce": "0x19",
        "chainId": "0xaa36a7"
      },
      "additionalContracts": [],
      "isFixedGasLimit": false
    },
    {
      "hash": "0xf0ad45ab9e016cd1090be95e982a60573d2e2fec93a3a3650967526250038630",
      "transactionType": "CALL",
      "contractName": null,
      "contractAddress": "0x9982db04ac6b3d158694ea7c0acda0872daec1ea",
      "function": "invalidateAcrossChains(address,string,uint64[],address[])",
      "arguments": [
        "0xAa00000000000000000000000000000000000002",
        "Sanctions update: address added to OFAC SDN list",
        "[3478487238524512106]",
        "[0xC05937c6f2140A32526Ef75353dbeca44f763AEC]"
      ],
      "transaction": {
        "from": "0x984a1db53b989fd3977bf07ef4cae068bde17bd4",
        "to": "0x9982db04ac6b3d158694ea7c0acda0872daec1ea",
        "gas": "0x46e76",
        "value": "0x0",
        "input": "0x971c04df000000000000000000000000aa00000000000000000000000000000000000002000000000000000000000000000000000000000000000000000000000000008000000000000000000000000000000000000000000000000000000000000000e00000000000000000000000000000000000000000000000000000000000000120000000000000000000000000000000000000000000000000000000000000003053616e6374696f6e73207570646174653a206164647265737320616464656420746f204f4641432053444e206c697374000000000000000000000000000000000000000000000000000000000000000000000000000000000000000000000001000000000000000000000000000000000000000000000000304611b6affba76a0000000000000000000000000000000000000000000000000000000000000001000000000000000000000000c05937c6f2140a32526ef75353dbeca44f763aec",
        "nonce": "0x1a",
        "chainId": "0xaa36a7"
      },
      "additionalContracts": [],
      "isFixedGasLimit": false
    }
  ],
  "receipts": [
    {
      "status": "0x1",
      "cumulativeGasUsed": "0xaff05b",
      "logs": [
        {
          "address": "0x779877a7b0d9e8603169ddbd7836e478b4624789",
          "topics": [
            "0xddf252ad1be2c89b69c2b068fc378daa952ba7f163c4a11628f55a4df523b3ef",
            "0x000000000000000000000000984a1db53b989fd3977bf07ef4cae068bde17bd4",
            "0x0000000000000000000000009982db04ac6b3d158694ea7c0acda0872daec1ea"
          ],
          "data": "0x00000000000000000000000000000000000000000000000000ddafc9a8e0a8f9",
          "blockHash": "0xf33685d61362b74912531049f7eeb37d0fcc97d9fd74077317814eac406df860",
          "blockNumber": "0x9d81ee",
          "blockTimestamp": "0x699cb184",
          "transactionHash": "0xf0ad45ab9e016cd1090be95e982a60573d2e2fec93a3a3650967526250038630",
          "transactionIndex": "0x87",
          "logIndex": "0xd0",
          "removed": false
        }
      ],
      "logsBloom": "0x00000004000000000000000000000000000000000000000000000000000000000000000000000000000000000000000000000000000000000000000000000000000000000000000000200008000000000000000000000000000000000000000000000000000000000000000000000000000000000000000000000010000000000000000000000000000000000000800000200000000000000000a00000000000000000000000000000000000000000000000000000000000000000000000000000000002000000000000000008000000000000000000000100000000000000000000000000000000000000000000000002000000000000000000000000000000",
      "type": "0x2",
      "transactionHash": "0xf0ad45ab9e016cd1090be95e982a60573d2e2fec93a3a3650967526250038630",
      "transactionIndex": "0x87",
      "blockHash": "0xf33685d61362b74912531049f7eeb37d0fcc97d9fd74077317814eac406df860",
      "blockNumber": "0x9d81ee",
      "gasUsed": "0xc9d6",
      "effectiveGasPrice": "0x1292f3",
      "from": "0x984a1db53b989fd3977bf07ef4cae068bde17bd4",
      "to": "0x779877a7b0d9e8603169ddbd7836e478b4624789",
      "contractAddress": null
    },
    {
      "status": "0x1",
      "cumulativeGasUsed": "0xb325b0",
      "logs": [
        {
          "address": "0x472e9a6ec84ad6ea1ee7f816c7de92530eb67d33",
          "topics": [
            "0x11fd85b3d1b359a53cea868620f5dc8f298feaf9f69ddab1553a036cb3b6e343",
            "0x000000000000000000000000aa00000000000000000000000000000000000002"
          ],
          "data": "0x6b14949f6d41dd9840b8fdcda21cd8117373c88f45d80ca3dde07dcbf5cdf1280000000000000000000000000000000000000000000000000000000000000040000000000000000000000000000000000000000000000000000000000000003053616e6374696f6e73207570646174653a206164647265737320616464656420746f204f4641432053444e206c69737400000000000000000000000000000000",
          "blockHash": "0xf33685d61362b74912531049f7eeb37d0fcc97d9fd74077317814eac406df860",
          "blockNumber": "0x9d81ee",
          "blockTimestamp": "0x699cb184",
          "transactionHash": "0x59350d2f6bbdb14ded1a7af3a6fd80a81ed20ec1837e58159cb99911bf2e4038",
          "transactionIndex": "0x88",
          "logIndex": "0xd1",
          "removed": false
        },
        {
          "address": "0x779877a7b0d9e8603169ddbd7836e478b4624789",
          "topics": [
            "0x8c5be1e5ebec7d5bd14f71427d1e84f3dd0314c0f7b2291e5b200ac8c7c3b925",
            "0x0000000000000000000000009982db04ac6b3d158694ea7c0acda0872daec1ea",
            "0x0000000000000000000000000bf3de8c5d3e8a2b34d2beeb17abfcebaf363a59"
          ],
          "data": "0x00000000000000000000000000000000000000000000000000c98888c8120dfa",
          "blockHash": "0xf33685d61362b74912531049f7eeb37d0fcc97d9fd74077317814eac406df860",
          "blockNumber": "0x9d81ee",
          "blockTimestamp": "0x699cb184",
          "transactionHash": "0x59350d2f6bbdb14ded1a7af3a6fd80a81ed20ec1837e58159cb99911bf2e4038",
          "transactionIndex": "0x88",
          "logIndex": "0xd2",
          "removed": false
        },
        {
          "address": "0x779877a7b0d9e8603169ddbd7836e478b4624789",
          "topics": [
            "0xddf252ad1be2c89b69c2b068fc378daa952ba7f163c4a11628f55a4df523b3ef",
            "0x0000000000000000000000009982db04ac6b3d158694ea7c0acda0872daec1ea",
            "0x000000000000000000000000bc09627e58989ba8f1eda775e486467d2a00944f"
          ],
          "data": "0x00000000000000000000000000000000000000000000000000c98888c8120dfa",
          "blockHash": "0xf33685d61362b74912531049f7eeb37d0fcc97d9fd74077317814eac406df860",
          "blockNumber": "0x9d81ee",
          "blockTimestamp": "0x699cb184",
          "transactionHash": "0x59350d2f6bbdb14ded1a7af3a6fd80a81ed20ec1837e58159cb99911bf2e4038",
          "transactionIndex": "0x88",
          "logIndex": "0xd3",
          "removed": false
        },
        {
          "address": "0x779877a7b0d9e8603169ddbd7836e478b4624789",
          "topics": [
            "0x8c5be1e5ebec7d5bd14f71427d1e84f3dd0314c0f7b2291e5b200ac8c7c3b925",
            "0x0000000000000000000000009982db04ac6b3d158694ea7c0acda0872daec1ea",
            "0x0000000000000000000000000bf3de8c5d3e8a2b34d2beeb17abfcebaf363a59"
          ],
          "data": "0x0000000000000000000000000000000000000000000000000000000000000000",
          "blockHash": "0xf33685d61362b74912531049f7eeb37d0fcc97d9fd74077317814eac406df860",
          "blockNumber": "0x9d81ee",
          "blockTimestamp": "0x699cb184",
          "transactionHash": "0x59350d2f6bbdb14ded1a7af3a6fd80a81ed20ec1837e58159cb99911bf2e4038",
          "transactionIndex": "0x88",
          "logIndex": "0xd4",
          "removed": false
        },
        {
          "address": "0xbc09627e58989ba8f1eda775e486467d2a00944f",
          "topics": [
            "0xd0c3c799bf9e2639de44391e7f524d229b2b55f5b1ea94b2bf7da42f7243dddd"
          ],
          "data": "0x0000000000000000000000000000000000000000000000000000000000000020000000000000000000000000000000000000000000000000de41ba4fc9d91ad90000000000000000000000009982db04ac6b3d158694ea7c0acda0872daec1ea000000000000000000000000c05937c6f2140a32526ef75353dbeca44f763aec00000000000000000000000000000000000000000000000000000000000054bc00000000000000000000000000000000000000000000000000000000000249f000000000000000000000000000000000000000000000000000000000000000000000000000000000000000000000000000000000000000000000000000000001000000000000000000000000779877a7b0d9e8603169ddbd7836e478b462478900000000000000000000000000000000000000000000000000c98888c8120dfa00000000000000000000000000000000000000000000000000000000000001a000000000000000000000000000000000000000000000000000000000000002c000000000000000000000000000000000000000000000000000000000000002e03989fdca1e00a6e028e1bcae7b77059cb198470e7058d80270451b95b483cbb700000000000000000000000000000000000000000000000000000000000001000000000000000000000000000000000000000000000000000000000000000003000000000000000000000000000000000000000000000000000000000000004000000000000000000000000000000000000000000000000000000000000000a0000000000000000000000000aa000000000000000000000000000000000000020000000000000000000000000000000000000000000000000000000000000040000000000000000000000000000000000000000000000000000000000000003053616e6374696f6e73207570646174653a206164647265737320616464656420746f204f4641432053444e206c6973740000000000000000000000000000000000000000000000000000000000000000000000000000000000000000000000000000000000000000000000000000000000000000000000000000000000000000",
          "blockHash": "0xf33685d61362b74912531049f7eeb37d0fcc97d9fd74077317814eac406df860",
          "blockNumber": "0x9d81ee",
          "blockTimestamp": "0x699cb184",
          "transactionHash": "0x59350d2f6bbdb14ded1a7af3a6fd80a81ed20ec1837e58159cb99911bf2e4038",
          "transactionIndex": "0x88",
          "logIndex": "0xd5",
          "removed": false
        },
        {
          "address": "0x9982db04ac6b3d158694ea7c0acda0872daec1ea",
          "topics": [
            "0x1d2eb2d89d3ad354c388259aa61e81a0eb409ce758a9dfb3249fae9dc0e737a4",
            "0x3989fdca1e00a6e028e1bcae7b77059cb198470e7058d80270451b95b483cbb7",
            "0x000000000000000000000000000000000000000000000000304611b6affba76a",
            "0x000000000000000000000000aa00000000000000000000000000000000000002"
          ],
          "data": "0x",
          "blockHash": "0xf33685d61362b74912531049f7eeb37d0fcc97d9fd74077317814eac406df860",
          "blockNumber": "0x9d81ee",
          "blockTimestamp": "0x699cb184",
          "transactionHash": "0x59350d2f6bbdb14ded1a7af3a6fd80a81ed20ec1837e58159cb99911bf2e4038",
          "transactionIndex": "0x88",
          "logIndex": "0xd6",
          "removed": false
        },
        {
          "address": "0x9982db04ac6b3d158694ea7c0acda0872daec1ea",
          "topics": [
            "0x96c72ba4e185ea925df8ea8276dc982b386c7c135fe047c122a1a4139e98eb02",
            "0x000000000000000000000000aa00000000000000000000000000000000000002"
          ],
          "data": "0x00000000000000000000000000000000000000000000000000000000000000400000000000000000000000000000000000000000000000000000000000000001000000000000000000000000000000000000000000000000000000000000003053616e6374696f6e73207570646174653a206164647265737320616464656420746f204f4641432053444e206c69737400000000000000000000000000000000",
          "blockHash": "0xf33685d61362b74912531049f7eeb37d0fcc97d9fd74077317814eac406df860",
          "blockNumber": "0x9d81ee",
          "blockTimestamp": "0x699cb184",
          "transactionHash": "0x59350d2f6bbdb14ded1a7af3a6fd80a81ed20ec1837e58159cb99911bf2e4038",
          "transactionIndex": "0x88",
          "logIndex": "0xd7",
          "removed": false
        }
      ],
      "logsBloom": "0x00200004080040000000000000000000000000000000000000000000000090000000000000000010000000400000000000000000080000000000000000200000200100080000000800280008000000000000040000000000000000000000000000020000000100000000000000000000000000000000000000000010000000000000000000000400000000000000800000000000000000000000800000000100020140000000080400400800004000000000040000000000000100000000000000000002002000000000000002000000000000000000000300400000080000000030000000000000000000000000000006000000000000040000000000200000",
      "type": "0x2",
      "transactionHash": "0x59350d2f6bbdb14ded1a7af3a6fd80a81ed20ec1837e58159cb99911bf2e4038",
      "transactionIndex": "0x88",
      "blockHash": "0xf33685d61362b74912531049f7eeb37d0fcc97d9fd74077317814eac406df860",
      "blockNumber": "0x9d81ee",
      "gasUsed": "0x33555",
      "effectiveGasPrice": "0x1292f3",
      "from": "0x984a1db53b989fd3977bf07ef4cae068bde17bd4",
      "to": "0x9982db04ac6b3d158694ea7c0acda0872daec1ea",
      "contractAddress": null
    }
  ],
  "libraries": [],
  "pending": [],
  "returns": {},
  "timestamp": 1771876740283,
  "chain": 11155111,
  "commit": null
}