{
  "transactions": [
    {
      "hash": "0x0948953094bee6a68df25aecb41c828dab453871bbbec46c0a1cbbd98b4d4e86",
      "transactionType": "CALL",
      "contractName": null,
      "contractAddress": "0x64f0d037a4f4b46a9f11e01c2144b042bf638f76",
      "function": "setAuthorizedReceiver(address,bool)",
      "arguments": [
        "0x984a1dB53b989fd3977bf07EF4cae068BDE17bd4",
        "true"
      ],
      "transaction": {
        "from": "0x984a1db53b989fd3977bf07ef4cae068bde17bd4",
        "to": "0x64f0d037a4f4b46a9f11e01c2144b042bf638f76",
        "gas": "0xed56",
        "value": "0x0",
        "input": "0x9d64ce62000000000000000000000000984a1db53b989fd3977bf07ef4cae068bde17bd40000000000000000000000000000000000000000000000000000000000000001",
        "nonce": "0xf",
        "chainId": "0x66eee"
      },
      "additionalContracts": [],
      "isFixedGasLimit": false
    },
    {
      "hash": "0x2db209a3ebde49bb028ecc9405dd0ef843beed32bd77c4ce52373abb181e6a7a",
      "transactionType": "CALL",
      "contractName": null,
      "contractAddress": "0x64f0d037a4f4b46a9f11e01c2144b042bf638f76",
      "function": "receiveRemoteAttestation((address,uint8,uint256,uint256,bytes32,bytes,uint256,uint256),uint64)",
      "arguments": [
        "(0xAA00000000000000000000000000000000000001, 2, 5000000000000000000000, 1803412345, 0x583fe9287fbaf92ba8deb14dc9f46fc714ae79b708026679c7686a293062441a, 0x000000000000000000000000000000000000000000000000000000000000002000000000000000000000000000000000000000000000000000000000000000025553000000000000000000000000000000000000000000000000000000000000, 1771876345, 11155111)",
        "16015286601757825753"
      ],
      "transaction": {
        "from": "0x984a1db53b989fd3977bf07ef4cae068bde17bd4",
        "to": "0x64f0d037a4f4b46a9f11e01c2144b042bf638f76",
        "gas": "0x62981",
        "value": "0x0",
        "input": "0xfcebfa5f0000000000000000000000000000000000000000000000000000000000000040000000000000000000000000000000000000000000000000de41ba4fc9d91ad9000000000000000000000000aa00000000000000000000000000000000000001000000000000000000000000000000000000000000000000000000000000000200000000000000000000000000000000000000000000010f0cf064dd59200000000000000000000000000000000000000000000000000000000000006b7de379583fe9287fbaf92ba8deb14dc9f46fc714ae79b708026679c7686a293062441a000000000000000000000000000000000000000000000000000000000000010000000000000000000000000000000000000000000000000000000000699caff90000000000000000000000000000000000000000000000000000000000aa36a70000000000000000000000000000000000000000000000000000000000000060000000000000000000000000000000000000000000000000000000000000002000000000000000000000000000000000000000000000000000000000000000025553000000000000000000000000000000000000000000000000000000000000",
        "nonce": "0x10",
        "chainId": "0x66eee"
      },
      "additionalContracts": [],
      "isFixedGasLimit": false
    },
    {
      "hash": "0x4abca8206e820bbb36d2c084640d9d4ac46c1f749c9bbef3c04da81614f3253d",
      "transactionType": "CALL",
      "contractName": null,
      "contractAddress": "0x64f0d037a4f4b46a9f11e01c2144b042bf638f76",
      "function": "setAuthorizedReceiver(address,bool)",
      "arguments": [
        "0x984a1dB53b989fd3977bf07EF4cae068BDE17bd4",
        "false"
      ],
      "transaction": {
        "from": "0x984a1db53b989fd3977bf07ef4cae068bde17bd4",
        "to": "0x64f0d037a4f4b46a9f11e01c2144b042bf638f76",
        "gas": "0x9284",
        "value": "0x0",
        "input": "0x9d64ce62000000000000000000000000984a1db53b989fd3977bf07ef4cae068bde17bd40000000000000000000000000000000000000000000000000000000000000000",
        "nonce": "0x11",
        "chainId": "0x66eee"
      },
      "additionalContracts": [],
      "isFixedGasLimit": false
    }
  ],
  "receipts": [
    {
      "status": "0x1",
      "cumulativeGasUsed": "0xb512",
      "logs": [],
      "logsBloom": "0x00000000000000000000000000000000000000000000000000000000000000000000000000000000000000000000000000000000000000000000000000000000000000000000000000000000000000000000000000000000000000000000000000000000000000000000000000000000000000000000000000000000000000000000000000000000000000000000000000000000000000000000000000000000000000000000000000000000000000000000000000000000000000000000000000000000000000000000000000000000000000000000000000000000000000000000000000000000000000000000000000000000000000000000000000000000",
      "type": "0x2",
      "transactionHash": "0x0948953094bee6a68df25aecb41c828dab453871bbbec46c0a1cbbd98b4d4e86",
      "transactionIndex": "0x1",
      "blockHash": "0x935ac410fa5846139a85de1070447d4a261532c88559a54e944122df57585276",
      "blockNumber": "0xe978a38",
      "gasUsed": "0xb512",
      "effectiveGasPrice": "0x1312d00",
      "from": "0x984a1db53b989fd3977bf07ef4cae068bde17bd4",
      "to": "0x64f0d037a4f4b46a9f11e01c2144b042bf638f76",
      "contractAddress": null,
      "gasUsedForL1": "0x0",
      "l1BlockNumber": "0x9d81d2",
      "timeboosted": false
    },
    {
      "status": "0x1",
      "cumulativeGasUsed": "0x5d939",
      "logs": [
        {
          "address": "0x64f0d037a4f4b46a9f11e01c2144b042bf638f76",
          "topics": [
            "0x143d7072935f83287315d37b55498bb51ebc83517613bfc2e48d17c3aff9ca34",
            "0x000000000000000000000000aa00000000000000000000000000000000000001"
          ],
          "data": "0x0000000000000000000000000000000000000000000000000000000000000002000000000000000000000000000000000000000000000000000000006b7de379000000000000000000000000000000000000000000000000de41ba4fc9d91ad9",
          "blockHash": "0x09ceca63e728fa445df39a80f6493e902238e61153cd3b01c74c92790d19e664",
          "blockNumber": "0xe978a3e",
          "blockTimestamp": "0x699cb022",
          "transactionHash": "0x2db209a3ebde49bb028ecc9405dd0ef843beed32bd77c4ce52373abb181e6a7a",
          "transactionIndex": "0x2",
          "logIndex": "0x2",
          "removed": false
        }
      ],
      "logsBloom": "0x00000000000000000000000000000000000000000000000000000000000000000000000000000000000000000000000000000000000000000000000080000000000000000000000000000000400000000000000000000000000000000000000000000000000000000000010000000000000000000000000000000000000000000000000000000800000000000000000000000000000000000000000000000000000000000000000000000000000000020000000000000000000000000000000000000000000000020000000000000000000000000000000000000000000000000000000000000000000001000000000000000000004000000040000000000000",
      "type": "0x2",
      "transactionHash": "0x2db209a3ebde49bb028ecc9405dd0ef843beed32bd77c4ce52373abb181e6a7a",
      "transactionIndex": "0x2",
      "blockHash": "0x09ceca63e728fa445df39a80f6493e902238e61153cd3b01c74c92790d19e664",
      "blockNumber": "0xe978a3e",
      "gasUsed": "0x436a3",
      "effectiveGasPrice": "0x1315410",
      "from": "0x984a1db53b989fd3977bf07ef4cae068bde17bd4",
      "to": "0x64f0d037a4f4b46a9f11e01c2144b042bf638f76",
      "contractAddress": null,
      "gasUsedForL1": "0x0",
      "l1BlockNumber": "0x9d81d2",
      "timeboosted": false
    },
    {
      "status": "0x1",
      "cumulativeGasUsed": "0x55f96",
      "logs": [],
      "logsBloom": "0x00000000000000000000000000000000000000000000000000000000000000000000000000000000000000000000000000000000000000000000000000000000000000000000000000000000000000000000000000000000000000000000000000000000000000000000000000000000000000000000000000000000000000000000000000000000000000000000000000000000000000000000000000000000000000000000000000000000000000000000000000000000000000000000000000000000000000000000000000000000000000000000000000000000000000000000000000000000000000000000000000000000000000000000000000000000",
      "type": "0x2",
      "transactionHash": "0x4abca8206e820bbb36d2c084640d9d4ac46c1f749c9bbef3c04da81614f3253d",
      "transactionIndex": "0x2",
      "blockHash": "0xcf2afbf032b756498619586e218ab9dfc7f0ecea2f0996d759fb395075e7484b",
      "blockNumber": "0xe978a43",
      "gasUsed": "0x5f7a",
      "effectiveGasPrice": "0x132cb10",
      "from": "0x984a1db53b989fd3977bf07ef4cae068bde17bd4",
      "to": "0x64f0d037a4f4b46a9f11e01c2144b042bf638f76",
      "contractAddress": null,
      "gasUsedForL1": "0x0",
      "l1BlockNumber": "0x9d81d2",
      "timeboosted": false
    }
  ],
  "libraries": [],
  "pending": [],
  "returns": {},
  "timestamp": 1771876388211,
  "chain": 421614,
  "commit": null
}