{
  "transactions": [
    {
      "hash": "0x90ec21c560f57c3240ff24ef5347f136eadd732ade848b838682b8ce83671717",
      "transactionType": "CALL",
      "contractName": "ComplianceGateway",
      "contractAddress": "0x472e9a6ec84ad6ea1ee7f816c7de92530eb67d33",
      "function": "attestCompliance(address,(address,uint8,uint256,uint256,bytes32,bytes,uint256,uint256))",
      "arguments": [
        "0xAA00000000000000000000000000000000000001",
        "(0xAA00000000000000000000000000000000000001, 2, 5000000000000000000000, 1803410964, 0x91baa8c0df106ec1cdf1315ea143222d0dde4412fa6311f5c56c5f40d7566b48, 0x000000000000000000000000000000000000000000000000000000000000006000000000000000000000000000000000000000000000000000000000000000a000000000000000000000000000000000000000000000000000000000000000000000000000000000000000000000000000000000000000000000000000000002555300000000000000000000000000000000000000000000000000000000000000000000000000000000000000000000000000000000000000000000000000024e59000000000000000000000000000000000000000000000000000000000000, 1771874964, 11155111)"
      ],
      "transaction": {
        "from": "0x984a1db53b989fd3977bf07ef4cae068bde17bd4",
        "to": "0x472e9a6ec84ad6ea1ee7f816c7de92530eb67d33",
        "gas": "0x6ce3a",
        "value": "0x0",
        "input": "0xd481ea5b000000000000000000000000aa000000000000000000000000000000000000010000000000000000000000000000000000000000000000000000000000000040000000000000000000000000aa00000000000000000000000000000000000001000000000000000000000000000000000000000000000000000000000000000200000000000000000000000000000000000000000000010f0cf064dd59200000000000000000000000000000000000000000000000000000000000006b7dde1491baa8c0df106ec1cdf1315ea143222d0dde4412fa6311f5c56c5f40d7566b48000000000000000000000000000000000000000000000000000000000000010000000000000000000000000000000000000000000000000000000000699caa940000000000000000000000000000000000000000000000000000000000aa36a700000000000000000000000000000000000000000000000000000000000000e0000000000000000000000000000000000000000000000000000000000000006000000000000000000000000000000000000000000000000000000000000000a000000000000000000000000000000000000000000000000000000000000000000000000000000000000000000000000000000000000000000000000000000002555300000000000000000000000000000000000000000000000000000000000000000000000000000000000000000000000000000000000000000000000000024e59000000000000000000000000000000000000000000000000000000000000",
        "nonce": "0xf",
        "chainId": "0xaa36a7"
      },
      "additionalContracts": [],
      "isFixedGasLimit": false
    },
    {
      "hash": "0xcde5dcca12cb79f767f563c195acd6f3ab212c153f2148be2cc45f011d221f8b",
      "transactionType": "CALL",
      "contractName": "ComplianceGateway",
      "contractAddress": "0x472e9a6ec84ad6ea1ee7f816c7de92530eb67d33",
      "function": "attestCompliance(address,(address,uint8,uint256,uint256,bytes32,bytes,uint256,uint256))",
      "arguments": [
        "0xAa00000000000000000000000000000000000002",
        "(0xAa00000000000000000000000000000000000002, 3, 50000000000000000000000, 1803410964, 0x6b14949f6d41dd9840b8fdcda21cd8117373c88f45d80ca3dde07dcbf5cdf128, 0x000000000000000000000000000000000000000000000000000000000000006000000000000000000000000000000000000000000000000000000000000000a000000000000000000000000000000000000000000000000000000000000000000000000000000000000000000000000000000000000000000000000000000002474200000000000000000000000000000000000000000000000000000000000000000000000000000000000000000000000000000000000000000000000000034c444e0000000000000000000000000000000000000000000000000000000000, 1771874964, 11155111)"
      ],
      "transaction": {
        "from": "0x984a1db53b989fd3977bf07ef4cae068bde17bd4",
        "to": "0x472e9a6ec84ad6ea1ee7f816c7de92530eb67d33",
        "gas": "0x6ce4b",
        "value": "0x0",
        "input": "0xd481ea5b000000000000000000000000aa000000000000000000000000000000000000020000000000000000000000000000000000000000000000000000000000000040000000000000000000000000aa000000000000000000000000000000000000020000000000000000000000000000000000000000000000000000000000000003000000000000000000000000000000000000000000000a968163f0a57b400000000000000000000000000000000000000000000000000000000000006b7dde146b14949f6d41dd9840b8fdcda21cd8117373c88f45d80ca3dde07dcbf5cdf128000000000000000000000000000000000000000000000000000000000000010000000000000000000000000000000000000000000000000000000000699caa940000000000000000000000000000000000000000000000000000000000aa36a700000000000000000000000000000000000000000000000000000000000000e0000000000000000000000000000000000000000000000000000000000000006000000000000000000000000000000000000000000000000000000000000000a000000000000000000000000000000000000000000000000000000000000000000000000000000000000000000000000000000000000000000000000000000002474200000000000000000000000000000000000000000000000000000000000000000000000000000000000000000000000000000000000000000000000000034c444e0000000000000000000000000000000000000000000000000000000000",
        "nonce": "0x10",
        "chainId": "0xaa36a7"
      },
      "additionalContracts": [],
      "isFixedGasLimit": false
    },
    {
      "hash": "0x2896e73dbfb29aad9ea38b966925a91d62bb314c79a076ab5806471f206a8e3c",
      "transactionType": "CALL",
      "contractName": "ComplianceGateway",
      "contractAddress": "0x472e9a6ec84ad6ea1ee7f816c7de92530eb67d33",
      "function": "attestCompliance(address,(address,uint8,uint256,uint256,bytes32,bytes,uint256,uint256))",
      "arguments": [
        "0xBb00000000000000000000000000000000000001",
        "(0xBb00000000000000000000000000000000000001, 1, 1000000000000000000000, 1774466964, 0x86c727e33b528cbfbad9f253fbd10969bac92ea3ad7e0893d2949ea3653163e2, 0x000000000000000000000000000000000000000000000000000000000000006000000000000000000000000000000000000000000000000000000000000000a000000000000000000000000000000000000000000000000000000000000000000000000000000000000000000000000000000000000000000000000000000002444500000000000000000000000000000000000000000000000000000000000000000000000000000000000000000000000000000000000000000000000000034245520000000000000000000000000000000000000000000000000000000000, 1771874964, 11155111)"
      ],
      "transaction": {
        "from": "0x984a1db53b989fd3977bf07ef4cae068bde17bd4",
        "to": "0x472e9a6ec84ad6ea1ee7f816c7de92530eb67d33",
        "gas": "0x6ce3a",
        "value": "0x0",
        "input": "0xd481ea5b000000000000000000000000bb000000000000000000000000000000000000010000000000000000000000000000000000000000000000000000000000000040000000000000000000000000bb00000000000000000000000000000000000001000000000000000000000000000000000000000000000000000000000000000100000000000000000000000000000000000000000000003635c9adc5dea000000000000000000000000000000000000000000000000000000000000069c4379486c727e33b528cbfbad9f253fbd10969bac92ea3ad7e0893d2949ea3653163e2000000000000000000000000000000000000000000000000000000000000010000000000000000000000000000000000000000000000000000000000699caa940000000000000000000000000000000000000000000000000000000000aa36a700000000000000000000000000000000000000000000000000000000000000e0000000000000000000000000000000000000000000000000000000000000006000000000000000000000000000000000000000000000000000000000000000a000000000000000000000000000000000000000000000000000000000000000000000000000000000000000000000000000000000000000000000000000000002444500000000000000000000000000000000000000000000000000000000000000000000000000000000000000000000000000000000000000000000000000034245520000000000000000000000000000000000000000000000000000000000",
        "nonce": "0x11",
        "chainId": "0xaa36a7"
      },
      "additionalContracts": [],
      "isFixedGasLimit": false
    },
    {
      "hash": "0x77bab5f33785bd1c641edba5017e5354eee30e713b438d48d7621ca35ca604d0",
      "transactionType": "CALL",
      "contractName": "ComplianceGateway",
      "contractAddress": "0x472e9a6ec84ad6ea1ee7f816c7de92530eb67d33",
      "function": "attestCompliance(address,(address,uint8,uint256,uint256,bytes32,bytes,uint256,uint256))",
      "arguments": [
        "0xcC00000000000000000000000000000000000001",
        "(0xcC00000000000000000000000000000000000001, 1, 500000000000000000000, 1771875264, 0x236b4601102e74c7e9592a2fde57e0381cea6f1818de918d7527c06e880ed533, 0x000000000000000000000000000000000000000000000000000000000000006000000000000000000000000000000000000000000000000000000000000000a000000000000000000000000000000000000000000000000000000000000000000000000000000000000000000000000000000000000000000000000000000002555300000000000000000000000000000000000000000000000000000000000000000000000000000000000000000000000000000000000000000000000000024341000000000000000000000000000000000000000000000000000000000000, 1771874964, 11155111)"
      ],
      "transaction": {
        "from": "0x984a1db53b989fd3977bf07ef4cae068bde17bd4",
        "to": "0x472e9a6ec84ad6ea1ee7f816c7de92530eb67d33",
        "gas": "0x6ce29",
        "value": "0x0",
        "input": "0xd481ea5b000000000000000000000000cc000000000000000000000000000000000000010000000000000000000000000000000000000000000000000000000000000040000000000000000000000000cc00000000000000000000000000000000000001000000000000000000000000000000000000000000000000000000000000000100000000000000000000000000000000000000000000001b1ae4d6e2ef50000000000000000000000000000000000000000000000000000000000000699cabc0236b4601102e74c7e9592a2fde57e0381cea6f1818de918d7527c06e880ed533000000000000000000000000000000000000000000000000000000000000010000000000000000000000000000000000000000000000000000000000699caa940000000000000000000000000000000000000000000000000000000000aa36a700000000000000000000000000000000000000000000000000000000000000e0000000000000000000000000000000000000000000000000000000000000006000000000000000000000000000000000000000000000000000000000000000a000000000000000000000000000000000000000000000000000000000000000000000000000000000000000000000000000000000000000000000000000000002555300000000000000000000000000000000000000000000000000000000000000000000000000000000000000000000000000000000000000000000000000024341000000000000000000000000000000000000000000000000000000000000",
        "nonce": "0x12",
        "chainId": "0xaa36a7"
      },
      "additionalContracts": [],
      "isFixedGasLimit": false
    }
  ],
  "receipts": [
    {
      "status": "0x1",
      "cumulativeGasUsed": "0x10a98ea",
      "logs": [
        {
          "address": "0x472e9a6ec84ad6ea1ee7f816c7de92530eb67d33",
          "topics": [
            "0x143d7072935f83287315d37b55498bb51ebc83517613bfc2e48d17c3aff9ca34",
            "0x000000000000000000000000aa00000000000000000000000000000000000001"
          ],
          "data": "0x0000000000000000000000000000000000000000000000000000000000000002000000000000000000000000000000000000000000000000000000006b7dde140000000000000000000000000000000000000000000000000000000000aa36a7",
          "blockHash": "0xfee392fd8a27aad09eab372d81d5138da7d204affb314cc0771b9dac0addeb70",
          "blockNumber": "0x9d8169",
          "blockTimestamp": "0x699caab8",
          "transactionHash": "0x90ec21c560f57c3240ff24ef5347f136eadd732ade848b838682b8ce83671717",
          "transactionIndex": "0x38",
          "logIndex": "0xb2",
          "removed": false
        }
      ],
      "logsBloom": "0x00000000000000000000000000000000000000000000000000000000000080000000000000000000000000000000000000000000000000000000000000000000000000000000000000080000000000000000000000000000000000000000000000000000000000000000010000000000000000000000000000000000000000000000000000000000000000000000000000000000000000000000000000000000000000000000000000000000000000020000040000000000000000000000000000000000000000020000000000000000000000000000000000000000000000000000000000000000000001000000000000000000004000000040000000000000",
      "type": "0x2",
      "transactionHash": "0x90ec21c560f57c3240ff24ef5347f136eadd732ade848b838682b8ce83671717",
      "transactionIndex": "0x38",
      "blockHash": "0xfee392fd8a27aad09eab372d81d5138da7d204affb314cc0771b9dac0addeb70",
      "blockNumber": "0x9d8169",
      "gasUsed": "0x4ed58",
      "effectiveGasPrice": "0xf4703",
      "from": "0x984a1db53b989fd3977bf07ef4cae068bde17bd4",
      "to": "0x472e9a6ec84ad6ea1ee7f816c7de92530eb67d33",
      "contractAddress": null
    },
    {
      "status": "0x1",
      "cumulativeGasUsed": "0x10f864e",
      "logs": [
        {
          "address": "0x472e9a6ec84ad6ea1ee7f816c7de92530eb67d33",
          "topics": [
            "0x143d7072935f83287315d37b55498bb51ebc83517613bfc2e48d17c3aff9ca34",
            "0x000000000000000000000000aa00000000000000000000000000000000000002"
          ],
          "data": "0x0000000000000000000000000000000000000000000000000000000000000003000000000000000000000000000000000000000000000000000000006b7dde140000000000000000000000000000000000000000000000000000000000aa36a7",
          "blockHash": "0xfee392fd8a27aad09eab372d81d5138da7d204affb314cc0771b9dac0addeb70",
          "blockNumber": "0x9d8169",
          "blockTimestamp": "0x699caab8",
          "transactionHash": "0x2896e73dbfb29aad9ea38b966925a91d62bb314c79a076ab5806471f206a8e3c",
          "transactionIndex": "0x39",
          "logIndex": "0xb3",
          "removed": false
        }
      ],
      "logsBloom": "0x00200000000000000000000000000000000000000000000000000000000080000000000000000000000000000000000000000000000000000000000000000000000000000000000000080000000000000000000000000000000000000000000000000000000000000000000000000000000000000000000000000000000000000000000000000000000000000000000000000000000000000000000000000000000040000000000000000800000000000000040000000000000000000000000000000000000000020000000000000000000000000000000000000000000000000000000000000000000000000000000000000000004000000040000000000000",
      "type": "0x2",
      "transactionHash": "0x2896e73dbfb29aad9ea38b966925a91d62bb314c79a076ab5806471f206a8e3c",
      "transactionIndex": "0x39",
      "blockHash": "0xfee392fd8a27aad09eab372d81d5138da7d204affb314cc0771b9dac0addeb70",
      "blockNumber": "0x9d8169",
      "gasUsed": "0x4ed64",
      "effectiveGasPrice": "0xf4703",
      "from": "0x984a1db53b989fd3977bf07ef4cae068bde17bd4",
      "to": "0x472e9a6ec84ad6ea1ee7f816c7de92530eb67d33",
      "contractAddress": null
    },
    {
      "status": "0x1",
      "cumulativeGasUsed": "0x11473a6",
      "logs": [
        {
          "address": "0x472e9a6ec84ad6ea1ee7f816c7de92530eb67d33",
          "topics": [
            "0x143d7072935f83287315d37b55498bb51ebc83517613bfc2e48d17c3aff9ca34",
            "0x000000000000000000000000bb00000000000000000000000000000000000001"
          ],
          "data": "0x00000000000000000000000000000000000000000000000000000000000000010000000000000000000000000000000000000000000000000000000069c437940000000000000000000000000000000000000000000000000000000000aa36a7",
          "blockHash": "0xfee392fd8a27aad09eab372d81d5138da7d204affb314cc0771b9dac0addeb70",
          "blockNumber": "0x9d8169",
          "blockTimestamp": "0x699caab8",
          "transactionHash": "0x77bab5f33785bd1c641edba5017e5354eee30e713b438d48d7621ca35ca604d0",
          "transactionIndex": "0x3a",
          "logIndex": "0xb4",
          "removed": false
        }
      ],
      "logsBloom": "0x00000000000000000000000000000000000000000000000000000000000080000000000000000000000000000000000000000000000000000010000000000000000000000000000000080000000000000000000000000000000000000000000000000000000000000000000000000800000000000000000000000000000000000000000000000000000000000000000000000000000000000000000000000000000000000000000000000000000000000000040000000000000000000000000000000000000000020000000000000000000000000000000000000000000000000000000000000000000000000000000000000000004000000040800000000000",
      "type": "0x2",
      "transactionHash": "0x77bab5f33785bd1c641edba5017e5354eee30e713b438d48d7621ca35ca604d0",
      "transactionIndex": "0x3a",
      "blockHash": "0xfee392fd8a27aad09eab372d81d5138da7d204affb314cc0771b9dac0addeb70",
      "blockNumber": "0x9d8169",
      "gasUsed": "0x4ed58",
      "effectiveGasPrice": "0xf4703",
      "from": "0x984a1db53b989fd3977bf07ef4cae068bde17bd4",
      "to": "0x472e9a6ec84ad6ea1ee7f816c7de92530eb67d33",
      "contractAddress": null
    },
    {
      "status": "0x1",
      "cumulativeGasUsed": "0x11960f2",
      "logs": [
        {
          "address": "0x472e9a6ec84ad6ea1ee7f816c7de92530eb67d33",
          "topics": [
            "0x143d7072935f83287315d37b55498bb51ebc83517613bfc2e48d17c3aff9ca34",
            "0x000000000000000000000000cc00000000000000000000000000000000000001"
          ],
          "data": "0x000000000000000000000000000000000000000000000000000000000000000100000000000000000000000000000000000000000000000000000000699cabc00000000000000000000000000000000000000000000000000000000000aa36a7",
          "blockHash": "0xfee392fd8a27aad09eab372d81d5138da7d204affb314cc0771b9dac0addeb70",
          "blockNumber": "0x9d8169",
          "blockTimestamp": "0x699caab8",
          "transactionHash": "0xcde5dcca12cb79f767f563c195acd6f3ab212c153f2148be2cc45f011d221f8b",
          "transactionIndex": "0x3b",
          "logIndex": "0xb5",
          "removed": false
        }
      ],
      "logsBloom": "0x00000000000000000000000000000000000000000000000000000000000080000000000000000000000000000000000000000000000000000000000000000000000000000000000000080000000000100000000000000000000000000000000000000010000000000000000000000000000000000000000000000000000000000000000000000000000000000000000000000000000200000000000000000000000000000000000000000000000000000000040000000000000000000000000000000000000000020000000000000000000000000000000000000000000000000000000000000000000000000000000000000000004000000040000000000000",
      "type": "0x2",
      "transactionHash": "0xcde5dcca12cb79f767f563c195acd6f3ab212c153f2148be2cc45f011d221f8b",
      "transactionIndex": "0x3b",
      "blockHash": "0xfee392fd8a27aad09eab372d81d5138da7d204affb314cc0771b9dac0addeb70",
      "blockNumber": "0x9d8169",
      "gasUsed": "0x4ed4c",
      "effectiveGasPrice": "0xf4703",
      "from": "0x984a1db53b989fd3977bf07ef4cae068bde17bd4",
      "to": "0x472e9a6ec84ad6ea1ee7f816c7de92530eb67d33",
      "contractAddress": null
    }
  ],
  "libraries": [],
  "pending": [],
  "returns": {},
  "timestamp": 1771875001276,
  "chain": 11155111,
  "commit": null
}