{
  "transactions": [
    {
      "hash": "0x35cfd9865eff444002a4e25e67a9bc7a7a6b2b7a643bb08e1b08f6a7ce6b3a3e",
      "transactionType": "CALL",
      "contractName": null,
      "contractAddress": "0x779877a7b0d9e8603169ddbd7836e478b4624789",
      "function": "transfer(address,uint256)",
      "arguments": [
        "0x21F4DaEaE24E6ca825315813680317F1A218f6d5",
        "62809692753381564"
      ],
      "transaction": {
        "from": "0x984a1db53b989fd3977bf07ef4cae068bde17bd4",
        "to": "0x779877a7b0d9e8603169ddbd7836e478b4624789",
        "gas": "0x116c8",
        "value": "0x0",
        "input": "0xa9059cbb00000000000000000000000021f4daeae24e6ca825315813680317f1a218f6d500000000000000000000000000000000000000000000000000df2515310448bc",
        "nonce": "0x16",
        "chainId": "0xaa36a7"
      },
      "additionalContracts": [],
      "isFixedGasLimit": false
    },
    {
      "hash": "0xcd50fbf492c325ee86ba56bd195c6cf89e0c073d00b58d53b87bee14884a3ecb",
      "transactionType": "CALL",
      "contractName": null,
      "contractAddress": "0x21f4daeae24e6ca825315813680317f1a218f6d5",
      "function": "sendAttestation(uint64,address,(address,uint8,uint256,uint256,bytes32,bytes,uint256,uint256))",
      "arguments": [
        "3478487238524512106",
        "0xC05937c6f2140A32526Ef75353dbeca44f763AEC",
        "(0xAA00000000000000000000000000000000000001, 2, 5000000000000000000000, 1803410964, 0x91baa8c0df106ec1cdf1315ea143222d0dde4412fa6311f5c56c5f40d7566b48, 0x000000000000000000000000000000000000000000000000000000000000006000000000000000000000000000000000000000000000000000000000000000a000000000000000000000000000000000000000000000000000000000000000000000000000000000000000000000000000000000000000000000000000000002555300000000000000000000000000000000000000000000000000000000000000000000000000000000000000000000000000000000000000000000000000024e59000000000000000000000000000000000000000000000000000000000000, 1771874964, 11155111)"
      ],
      "transaction": {
        "from": "0x984a1db53b989fd3977bf07ef4cae068bde17bd4",
        "to": "0x21f4daeae24e6ca825315813680317f1a218f6d5",
        "gas": "0x3defc",
        "value": "0x0",
        "input": "0x6f938941000000000000000000000000000000000000000000000000304611b6affba76a000000000000000000000000c05937c6f2140a32526ef75353dbeca44f763aec0000000000000000000000000000000000000000000000000000000000000060000000000000000000000000aa00000000000000000000000000000000000001000000000000000000000000000000000000000000000000000000000000000200000000000000000000000000000000000000000000010f0cf064dd59200000000000000000000000000000000000000000000000000000000000006b7dde1491baa8c0df106ec1cdf1315ea143222d0dde4412fa6311f5c56c5f40d7566b48000000000000000000000000000000000000000000000000000000000000010000000000000000000000000000000000000000000000000000000000699caa940000000000000000000000000000000000000000000000000000000000aa36a700000000000000000000000000000000000000000000000000000000000000e0000000000000000000000000000000000000000000000000000000000000006000000000000000000000000000000000000000000000000000000000000000a000000000000000000000000000000000000000000000000000000000000000000000000000000000000000000000000000000000000000000000000000000002555300000000000000000000000000000000000000000000000000000000000000000000000000000000000000000000000000000000000000000000000000024e59000000000000000000000000000000000000000000000000000000000000",
        "nonce": "0x17",
        "chainId": "0xaa36a7"
      },
      "additionalContracts": [],
      "isFixedGasLimit": false
    }
  ],
  "receipts": [
    {
      "status": "0x1",
      "cumulativeGasUsed": "0x179fb91",
      "logs": [
        {
          "address": "0x779877a7b0d9e8603169ddbd7836e478b4624789",
          "topics": [
            "0xddf252ad1be2c89b69c2b068fc378daa952ba7f163c4a11628f55a4df523b3ef",
            "0x000000000000000000000000984a1db53b989fd3977bf07ef4cae068bde17bd4",
            "0x00000000000000000000000021f4daeae24e6ca825315813680317f1a218f6d5"
          ],
          "data": "0x00000000000000000000000000000000000000000000000000df2515310448bc",
          "blockHash": "0x8cc01d33f90bac8f5172f20c6b9597a217f6fbacaeb9507a770e06c2ed38bcb3",
          "blockNumber": "0x9d81ca",
          "blockTimestamp": "0x699cafb0",
          "transactionHash": "0x35cfd9865eff444002a4e25e67a9bc7a7a6b2b7a643bb08e1b08f6a7ce6b3a3e",
          "transactionIndex": "0x5b",
          "logIndex": "0xdc",
          "removed": false
        }
      ],
      "logsBloom": "0x00000004000000000000000000000000000000000000000000000000000000000000000000000000000000000000000000040000000000000000000000000000000000000000000000000008000000000000000000000004000000000000000000000000000000000000000000000000000000000000000000000010000000000000000000000000000000000000800000200000000000000000200000000000000000000000000000000000000000000000000000000000000000000000000000000002000000000000000008000000000000000000000100000000000000000000000000000000000000000000000000000000000000000000000000000000",
      "type": "0x2",
      "transactionHash": "0x35cfd9865eff444002a4e25e67a9bc7a7a6b2b7a643bb08e1b08f6a7ce6b3a3e",
      "transactionIndex": "0x5b",
      "blockHash": "0x8cc01d33f90bac8f5172f20c6b9597a217f6fbacaeb9507a770e06c2ed38bcb3",
      "blockNumber": "0x9d81ca",
      "gasUsed": "0xc9d6",
      "effectiveGasPrice": "0x1b774f",
      "from": "0x984a1db53b989fd3977bf07ef4cae068bde17bd4",
      "to": "0x779877a7b0d9e8603169ddbd7836e478b4624789",
      "contractAddress": null
    },
    {
      "status": "0x1",
      "cumulativeGasUsed": "0x17cc906",
      "logs": [
        {
          "address": "0x779877a7b0d9e8603169ddbd7836e478b4624789",
          "topics": [
            "0x8c5be1e5ebec7d5bd14f71427d1e84f3dd0314c0f7b2291e5b200ac8c7c3b925",
            "0x00000000000000000000000021f4daeae24e6ca825315813680317f1a218f6d5",
            "0x0000000000000000000000000bf3de8c5d3e8a2b34d2beeb17abfcebaf363a59"
          ],
          "data": "0x00000000000000000000000000000000000000000000000000cadbe4b83270ab",
          "blockHash": "0x8cc01d33f90bac8f5172f20c6b9597a217f6fbacaeb9507a770e06c2ed38bcb3",
          "blockNumber": "0x9d81ca",
          "blockTimestamp": "0x699cafb0",
          "transactionHash": "0xcd50fbf492c325ee86ba56bd195c6cf89e0c073d00b58d53b87bee14884a3ecb",
          "transactionIndex": "0x5c",
          "logIndex": "0xdd",
          "removed": false
        },
        {
          "address": "0x779877a7b0d9e8603169ddbd7836e478b4624789",
          "topics": [
            "0xddf252ad1be2c89b69c2b068fc378daa952ba7f163c4a11628f55a4df523b3ef",
            "0x00000000000000000000000021f4daeae24e6ca825315813680317f1a218f6d5",
            "0x000000000000000000000000bc09627e58989ba8f1eda775e486467d2a00944f"
          ],
          "data": "0x00000000000000000000000000000000000000000000000000cadbe4b83270ab",
          "blockHash": "0x8cc01d33f90bac8f5172f20c6b9597a217f6fbacaeb9507a770e06c2ed38bcb3",
          "blockNumber": "0x9d81ca",
          "blockTimestamp": "0x699cafb0",
          "transactionHash": "0xcd50fbf492c325ee86ba56bd195c6cf89e0c073d00b58d53b87bee14884a3ecb",
          "transactionIndex": "0x5c",
          "logIndex": "0xde",
          "removed": false
        },
        {
          "address": "0x779877a7b0d9e8603169ddbd7836e478b4624789",
          "topics": [
            "0x8c5be1e5ebec7d5bd14f71427d1e84f3dd0314c0f7b2291e5b200ac8c7c3b925",
            "0x00000000000000000000000021f4daeae24e6ca825315813680317f1a218f6d5",
            "0x0000000000000000000000000bf3de8c5d3e8a2b34d2beeb17abfcebaf363a59"
          ],
          "data": "0x0000000000000000000000000000000000000000000000000000000000000000",
          "blockHash": "0x8cc01d33f90bac8f5172f20c6b9597a217f6fbacaeb9507a770e06c2ed38bcb3",
          "blockNumber": "0x9d81ca",
          "blockTimestamp": "0x699cafb0",
          "transactionHash": "0xcd50fbf492c325ee86ba56bd195c6cf89e0c073d00b58d53b87bee14884a3ecb",
          "transactionIndex": "0x5c",
          "logIndex": "0xdf",
          "removed": false
        },
        {
          "address": "0xbc09627e58989ba8f1eda775e486467d2a00944f",
          "topics": [
            "0xd0c3c799bf9e2639de44391e7f524d229b2b55f5b1ea94b2bf7da42f7243dddd"
          ],
          "data": "0x0000000000000000000000000000000000000000000000000000000000000020000000000000000000000000000000000000000000000000de41ba4fc9d91ad900000000000000000000000021f4daeae24e6ca825315813680317f1a218f6d5000000000000000000000000c05937c6f2140a32526ef75353dbeca44f763aec00000000000000000000000000000000000000000000000000000000000054bb0000000000000000000000000000000000000000000000000000000000030d4000000000000000000000000000000000000000000000000000000000000000000000000000000000000000000000000000000000000000000000000000000001000000000000000000000000779877a7b0d9e8603169ddbd7836e478b462478900000000000000000000000000000000000000000000000000cadbe4b83270ab00000000000000000000000000000000000000000000000000000000000001a000000000000000000000000000000000000000000000000000000000000004400000000000000000000000000000000000000000000000000000000000000460a48328ae8c953a1e6a1aca42b779abb76e68d1d25f11d83b96e5337d97611aa000000000000000000000000000000000000000000000000000000000000002800000000000000000000000000000000000000000000000000000000000000001000000000000000000000000000000000000000000000000000000000000004000000000000000000000000000000000000000000000000000000000000002200000000000000000000000000000000000000000000000000000000000000020000000000000000000000000aa00000000000000000000000000000000000001000000000000000000000000000000000000000000000000000000000000000200000000000000000000000000000000000000000000010f0cf064dd59200000000000000000000000000000000000000000000000000000000000006b7dde1491baa8c0df106ec1cdf1315ea143222d0dde4412fa6311f5c56c5f40d7566b48000000000000000000000000000000000000000000000000000000000000010000000000000000000000000000000000000000000000000000000000699caa940000000000000000000000000000000000000000000000000000000000aa36a700000000000000000000000000000000000000000000000000000000000000e0000000000000000000000000000000000000000000000000000000000000006000000000000000000000000000000000000000000000000000000000000000a000000000000000000000000000000000000000000000000000000000000000000000000000000000000000000000000000000000000000000000000000000002555300000000000000000000000000000000000000000000000000000000000000000000000000000000000000000000000000000000000000000000000000024e5900000000000000000000000000000000000000000000000000000000000000000000000000000000000000000000000000000000000000000000000000000000000000000000000000000000000000000000000000000000000000000000",
          "blockHash": "0x8cc01d33f90bac8f5172f20c6b9597a217f6fbacaeb9507a770e06c2ed38bcb3",
          "blockNumber": "0x9d81ca",
          "blockTimestamp": "0x699cafb0",
          "transactionHash": "0xcd50fbf492c325ee86ba56bd195c6cf89e0c073d00b58d53b87bee14884a3ecb",
          "transactionIndex": "0x5c",
          "logIndex": "0xe0",
          "removed": false
        },
        {
          "address": "0x21f4daeae24e6ca825315813680317f1a218f6d5",
          "topics": [
            "0xba655f43b89cc7de22396defeb6d6a2356d7be13780a2a2de5ad0e5ddf6c1dcf",
            "0xa48328ae8c953a1e6a1aca42b779abb76e68d1d25f11d83b96e5337d97611aa0",
            "0x000000000000000000000000000000000000000000000000304611b6affba76a",
            "0x000000000000000000000000aa00000000000000000000000000000000000001"
          ],
          "data": "0x",
          "blockHash": "0x8cc01d33f90bac8f5172f20c6b9597a217f6fbacaeb9507a770e06c2ed38bcb3",
          "blockNumber": "0x9d81ca",
          "blockTimestamp": "0x699cafb0",
          "transactionHash": "0xcd50fbf492c325ee86ba56bd195c6cf89e0c073d00b58d53b87bee14884a3ecb",
          "transactionIndex": "0x5c",
          "logIndex": "0xe1",
          "removed": false
        }
      ],
      "logsBloom": "0x00000004080440000000000000000000000000000000000000000000000000000100000800000000000000000000000000040000080000000000000000200020002100000000000000000008000000000000000004000004000000000000000000020000000100000000010000000000000000000000000000000010000020000000000000000000000000000000800000200000000000000000000000000000020000000000080400400000000000020000000000000000000100000000000000000002000000000000000002000000000000000000000100000000080000000010000000040000000001000000000024000000000000040000000000200000",
      "type": "0x2",
      "transactionHash": "0xcd50fbf492c325ee86ba56bd195c6cf89e0c073d00b58d53b87bee14884a3ecb",
      "transactionIndex": "0x5c",
      "blockHash": "0x8cc01d33f90bac8f5172f20c6b9597a217f6fbacaeb9507a770e06c2ed38bcb3",
      "blockNumber": "0x9d81ca",
      "gasUsed": "0x2cd75",
      "effectiveGasPrice": "0x1b774f",
      "from": "0x984a1db53b989fd3977bf07ef4cae068bde17bd4",
      "to": "0x21f4daeae24e6ca825315813680317f1a218f6d5",
      "contractAddress": null
    }
  ],
  "libraries": [],
  "pending": [],
  "returns": {},
  "timestamp": 1771876273454,
  "chain": 11155111,
  "commit": null
}