{
  "transactions": [
    {
      "hash": "0x9a2ea1ff0840c6d819aad75cba386c54fd6d9478af59fe682d522e317a1f68cb",
      "transactionType": "CALL",
      "contractName": "AttestationSender",
      "contractAddress": "0xbabda3fae21d9c08f5aaf742dc61b4c4cddb26f5",
      "function": "setAuthorizedSender(address,bool)",
      "arguments": [
        "0x984a1dB53b989fd3977bf07EF4cae068BDE17bd4",
        "true"
      ],
      "transaction": {
        "from": "0x984a1db53b989fd3977bf07ef4cae068bde17bd4",
        "to": "0xbabda3fae21d9c08f5aaf742dc61b4c4cddb26f5",
        "gas": "0x975f",
        "value": "0x0",
        "input": "0xf3dfc2a9000000000000000000000000984a1db53b989fd3977bf07ef4cae068bde17bd40000000000000000000000000000000000000000000000000000000000000001",
        "nonce": "0xc",
        "chainId": "0xaa36a7"
      },
      "additionalContracts": [],
      "isFixedGasLimit": false
    },
    {
      "hash": "0xe95766375b3721ab2df41bf04acb81743410a38d186b98bf68fb899b1d6ddf28",
      "transactionType": "CALL",
      "contractName": null,
      "contractAddress": "0xbabda3fae21d9c08f5aaf742dc61b4c4cddb26f5",
      "function": null,
      "arguments": null,
      "transaction": {
        "from": "0x984a1db53b989fd3977bf07ef4cae068bde17bd4",
        "to": "0xbabda3fae21d9c08f5aaf742dc61b4c4cddb26f5",
        "gas": "0x7199",
        "value": "0x8e1bc9bf040000",
        "input": "0x",
        "nonce": "0xd",
        "chainId": "0xaa36a7"
      },
      "additionalContracts": [],
      "isFixedGasLimit": false
    },
    {
      "hash": "0x6700103ca8999410f139f247c260a7c6af29bea9f7ce3f041b56375c447592fa",
      "transactionType": "CALL",
      "contractName": null,
      "contractAddress": "0xfbf46805a3f3afd485232b441e8e88e19c7dd06f",
      "function": null,
      "arguments": null,
      "transaction": {
        "from": "0x984a1db53b989fd3977bf07ef4cae068bde17bd4",
        "to": "0xfbf46805a3f3afd485232b441e8e88e19c7dd06f",
        "gas": "0x7199",
        "value": "0x8e1bc9bf040000",
        "input": "0x",
        "nonce": "0xe",
        "chainId": "0xaa36a7"
      },
      "additionalContracts": [],
      "isFixedGasLimit": false
    }
  ],
  "receipts": [
    {
      "status": "0x1",
      "cumulativeGasUsed": "0x409b16",
      "logs": [],
      "logsBloom": "0x00000000000000000000000000000000000000000000000000000000000000000000000000000000000000000000000000000000000000000000000000000000000000000000000000000000000000000000000000000000000000000000000000000000000000000000000000000000000000000000000000000000000000000000000000000000000000000000000000000000000000000000000000000000000000000000000000000000000000000000000000000000000000000000000000000000000000000000000000000000000000000000000000000000000000000000000000000000000000000000000000000000000000000000000000000000",
      "type": "0x2",
      "transactionHash": "0x9a2ea1ff0840c6d819aad75cba386c54fd6d9478af59fe682d522e317a1f68cb",
      "transactionIndex": "0x2d",
      "blockHash": "0x02a22792e493c278ff3b369570b3680059440bce16e2af0724194969d0339431",
      "blockNumber": "0x9d8166",
      "gasUsed": "0x6781",
      "effectiveGasPrice": "0xf471a",
      "from": "0x984a1db53b989fd3977bf07ef4cae068bde17bd4",
      "to": "0xbabda3fae21d9c08f5aaf742dc61b4c4cddb26f5",
      "contractAddress": null
    },
    {
      "status": "0x1",
      "cumulativeGasUsed": "0x40ed55",
      "logs": [],
      "logsBloom": "0x00000000000000000000000000000000000000000000000000000000000000000000000000000000000000000000000000000000000000000000000000000000000000000000000000000000000000000000000000000000000000000000000000000000000000000000000000000000000000000000000000000000000000000000000000000000000000000000000000000000000000000000000000000000000000000000000000000000000000000000000000000000000000000000000000000000000000000000000000000000000000000000000000000000000000000000000000000000000000000000000000000000000000000000000000000000",
      "type": "0x2",
      "transactionHash": "0xe95766375b3721ab2df41bf04acb81743410a38d186b98bf68fb899b1d6ddf28",
      "transactionIndex": "0x2e",
      "blockHash": "0x02a22792e493c278ff3b369570b3680059440bce16e2af0724194969d0339431",
      "blockNumber": "0x9d8166",
      "gasUsed": "0x523f",
      "effectiveGasPrice": "0xf471a",
      "from": "0x984a1db53b989fd3977bf07ef4cae068bde17bd4",
      "to": "0xbabda3fae21d9c08f5aaf742dc61b4c4cddb26f5",
      "contractAddress": null
    },
    {
      "status": "0x1",
      "cumulativeGasUsed": "0x413f94",
      "logs": [],
      "logsBloom": "0x00000000000000000000000000000000000000000000000000000000000000000000000000000000000000000000000000000000000000000000000000000000000000000000000000000000000000000000000000000000000000000000000000000000000000000000000000000000000000000000000000000000000000000000000000000000000000000000000000000000000000000000000000000000000000000000000000000000000000000000000000000000000000000000000000000000000000000000000000000000000000000000000000000000000000000000000000000000000000000000000000000000000000000000000000000000",
      "type": "0x2",
      "transactionHash": "0x6700103ca8999410f139f247c260a7c6af29bea9f7ce3f041b56375c447592fa",
      "transactionIndex": "0x2f",
      "blockHash": "0x02a22792e493c278ff3b369570b3680059440bce16e2af0724194969d0339431",
      "blockNumber": "0x9d8166",
      "gasUsed": "0x523f",
      "effectiveGasPrice": "0xf471a",
      "from": "0x984a1db53b989fd3977bf07ef4cae068bde17bd4",
      "to": "0xfbf46805a3f3afd485232b441e8e88e19c7dd06f",
      "contractAddress": null
    }
  ],
  "libraries": [],
  "pending": [],
  "returns": {},
  "timestamp": 1771874952205,
  "chain": 11155111,
  "commit": null
}