{
  "transactions": [
    {
      "hash": "0xeabe8f221ec4ca1d3ed297ac8b88b27bfa830c2f586bad162b3818c866c6a208",
      "transactionType": "CALL",
      "contractName": "AttestationReceiver",
      "contractAddress": "0xc05937c6f2140a32526ef75353dbeca44f763aec",
      "function": "allowlistChain(uint64,bool)",
      "arguments": [
        "16015286601757825753",
        "true"
      ],
      "transaction": {
        "from": "0x984a1db53b989fd3977bf07ef4cae068bde17bd4",
        "to": "0xc05937c6f2140a32526ef75353dbeca44f763aec",
        "gas": "0x91f3",
        "value": "0x0",
        "input": "0xc4f7cba1000000000000000000000000000000000000000000000000de41ba4fc9d91ad90000000000000000000000000000000000000000000000000000000000000001",
        "nonce": "0xc",
        "chainId": "0x66eee"
      },
      "additionalContracts": [],
      "isFixedGasLimit": false
    },
    {
      "hash": "0xd686a133a74d07fafad3b34486063f01b5457a6648a09c5eb2fab15bb082ac1f",
      "transactionType": "CALL",
      "contractName": "AttestationReceiver",
      "contractAddress": "0xc05937c6f2140a32526ef75353dbeca44f763aec",
      "function": "allowlistSender(uint64,address,bool)",
      "arguments": [
        "16015286601757825753",
        "0x21F4DaEaE24E6ca825315813680317F1A218f6d5",
        "true"
      ],
      "transaction": {
        "from": "0x984a1db53b989fd3977bf07ef4cae068bde17bd4",
        "to": "0xc05937c6f2140a32526ef75353dbeca44f763aec",
        "gas": "0xefa0",
        "value": "0x0",
        "input": "0xf039a009000000000000000000000000000000000000000000000000de41ba4fc9d91ad900000000000000000000000021f4daeae24e6ca825315813680317f1a218f6d50000000000000000000000000000000000000000000000000000000000000001",
        "nonce": "0xd",
        "chainId": "0x66eee"
      },
      "additionalContracts": [],
      "isFixedGasLimit": false
    },
    {
      "hash": "0x654d45e056df7feb1b9ac391baa3b1856558ef224cc5d6bf995231ab5a4c80ec",
      "transactionType": "CALL",
      "contractName": "AttestationReceiver",
      "contractAddress": "0xc05937c6f2140a32526ef75353dbeca44f763aec",
      "function": "allowlistSender(uint64,address,bool)",
      "arguments": [
        "16015286601757825753",
        "0x9982dB04ac6b3d158694ea7c0aCDa0872daEc1ea",
        "true"
      ],
      "transaction": {
        "from": "0x984a1db53b989fd3977bf07ef4cae068bde17bd4",
        "to": "0xc05937c6f2140a32526ef75353dbeca44f763aec",
        "gas": "0xefa0",
        "value": "0x0",
        "input": "0xf039a009000000000000000000000000000000000000000000000000de41ba4fc9d91ad90000000000000000000000009982db04ac6b3d158694ea7c0acda0872daec1ea0000000000000000000000000000000000000000000000000000000000000001",
        "nonce": "0xe",
        "chainId": "0x66eee"
      },
      "additionalContracts": [],
      "isFixedGasLimit": false
    }
  ],
  "receipts": [
    {
      "status": "0x1",
      "cumulativeGasUsed": "0x66dc",
      "logs": [],
      "logsBloom": "0x00000000000000000000000000000000000000000000000000000000000000000000000000000000000000000000000000000000000000000000000000000000000000000000000000000000000000000000000000000000000000000000000000000000000000000000000000000000000000000000000000000000000000000000000000000000000000000000000000000000000000000000000000000000000000000000000000000000000000000000000000000000000000000000000000000000000000000000000000000000000000000000000000000000000000000000000000000000000000000000000000000000000000000000000000000000",
      "type": "0x2",
      "transactionHash": "0xeabe8f221ec4ca1d3ed297ac8b88b27bfa830c2f586bad162b3818c866c6a208",
      "transactionIndex": "0x1",
      "blockHash": "0x3473a6730682ba23e877581672abf7d2ad68b881f5a1b88376b3e5658098ad95",
      "blockNumber": "0xe9787cc",
      "gasUsed": "0x66dc",
      "effectiveGasPrice": "0x1313ca0",
      "from": "0x984a1db53b989fd3977bf07ef4cae068bde17bd4",
      "to": "0xc05937c6f2140a32526ef75353dbeca44f763aec",
      "contractAddress": null,
      "gasUsedForL1": "0x0",
      "l1BlockNumber": "0x9d81be",
      "timeboosted": false
    },
    {
      "status": "0x1",
      "cumulativeGasUsed": "0xb6d4",
      "logs": [],
      "logsBloom": "0x00000000000000000000000000000000000000000000000000000000000000000000000000000000000000000000000000000000000000000000000000000000000000000000000000000000000000000000000000000000000000000000000000000000000000000000000000000000000000000000000000000000000000000000000000000000000000000000000000000000000000000000000000000000000000000000000000000000000000000000000000000000000000000000000000000000000000000000000000000000000000000000000000000000000000000000000000000000000000000000000000000000000000000000000000000000",
      "type": "0x2",
      "transactionHash": "0xd686a133a74d07fafad3b34486063f01b5457a6648a09c5eb2fab15bb082ac1f",
      "transactionIndex": "0x1",
      "blockHash": "0x90273a5d5f02ea0dbdf61cf39bf197e3459a15f1296e559ec48f3a7ca0dfeb97",
      "blockNumber": "0xe9787d1",
      "gasUsed": "0xb6d4",
      "effectiveGasPrice": "0x131aa00",
      "from": "0x984a1db53b989fd3977bf07ef4cae068bde17bd4",
      "to": "0xc05937c6f2140a32526ef75353dbeca44f763aec",
      "contractAddress": null,
      "gasUsedForL1": "0x0",
      "l1BlockNumber": "0x9d81be",
      "timeboosted": false
    },
    {
      "status": "0x1",
      "cumulativeGasUsed": "0xb6d4",
      "logs": [],
      "logsBloom": "0x00000000000000000000000000000000000000000000000000000000000000000000000000000000000000000000000000000000000000000000000000000000000000000000000000000000000000000000000000000000000000000000000000000000000000000000000000000000000000000000000000000000000000000000000000000000000000000000000000000000000000000000000000000000000000000000000000000000000000000000000000000000000000000000000000000000000000000000000000000000000000000000000000000000000000000000000000000000000000000000000000000000000000000000000000000000",
      "type": "0x2",
      "transactionHash": "0x654d45e056df7feb1b9ac391baa3b1856558ef224cc5d6bf995231ab5a4c80ec",
      "transactionIndex": "0x1",
      "blockHash": "0xa9e214937d7be03658edd258c71a51d3c2d91a33b2358801ac370d21d51b9f68",
      "blockNumber": "0xe9787d4",
      "gasUsed": "0xb6d4",
      "effectiveGasPrice": "0x1312d00",
      "from": "0x984a1db53b989fd3977bf07ef4cae068bde17bd4",
      "to": "0xc05937c6f2140a32526ef75353dbeca44f763aec",
      "contractAddress": null,
      "gasUsedForL1": "0x0",
      "l1BlockNumber": "0x9d81be",
      "timeboosted": false
    }
  ],
  "libraries": [],
  "pending": [],
  "returns": {},
  "timestamp": 1771876118668,
  "chain": 421614,
  "commit": null
}